S00F000070726F6A6563742E737265631E
S11300000C942A000C9434000C9434000C943400A6
S11300100C9434000C9434000C9434000C9434008C
S11300200C9434000C9434000C9434000C9434007C
S11300300C9434000C9434000C9434000C9434006C
S11300400C9434000C9434000C9434000C9434005C
S11300500C94340011241FBECFE5D8E0DEBFCDBF21
S11300600E9469000C945A010C94000040E00E9424
S11300706B0008950E942101089541E00E946B00E5
S1130080089541E00E94A4000895CF93DF931F9246
S1130090CDB7DEB7198267E084E00E943600AE0176
S11300A04F5F5F4F67E084E00E943A0064E081E0C4
S11300B00E943D008981882371F389B3806289BBE2
S11300C064E081E00E943D0064E081E00E94410020
S11300D0E2CF0E9445006830B0F58230A1F018F4F8
S11300E0813031F008958330C9F0843011F10895DE
S11300F02AB381E090E002C0880F991F6A95E2F765
S1130100822B8ABB089527B381E090E002C0880F58
S1130110991F6A95E2F7822B87BB089524B381E087
S113012090E002C0880F991F6A95E2F7822B84BB86
S1130130089521B381E090E002C0880F991F6A9569
S1130140E2F7822B81BB08954423E1F16830D0F5B6
S11301508230A9F018F4813031F034C08330D9F002
S1130160843029F12FC09BB321E030E0062E02C079
S1130170220F331F0A94E2F7292B2BBB23C098B319
S113018021E030E0062E02C0220F331F0A94E2F76A
S1130190292B28BB17C095B321E030E0062E02C0FE
S11301A0220F331F0A94E2F7292B25BB0BC092B30D
S11301B021E030E0062E02C0220F331F0A94E2F73A
S11301C0292B22BB41113CC06830D0F58230A9F004
S11301D018F4813031F008958330D9F0843029F156
S11301E008952BB381E090E002C0880F991F6A95AF
S11301F0E2F7809582238BBB089528B381E090E0D9
S113020002C0880F991F6A95E2F78095822388BB04
S1130210089525B381E090E002C0880F991F6A9584
S1130220E2F78095822385BB089522B381E090E0B4
S113023002C0880F991F6A95E2F78095822382BBDA
S113024008956830B0F58230A1F018F4813031F0AF
S113025008958330C9F0843011F1089589B390E092
S113026002C0959587956A95E2F78170FA018083BB
S1130270089586B390E002C0959587956A95E2F754
S11302808170FA018083089583B390E002C095954C
S113029087956A95E2F78170FA018083089580B3A7
S11302A090E002C0959587956A95E2F78170FA010E
S10B02B080830895F894FFCF48
S9030000FC
