:100000000C942A000C943F000C943F000C943F0089
:100010000C943F000C943F000C943F000C943F0064
:100020000C943F000C943F000C943F000C943F0054
:100030000C943F000C943F000C943F000C943F0044
:100040000C943F000C943F000C943F000C943F0034
:100050000C943F0011241FBECFE5D8E0DEBFCDBF1A
:1000600010E0A0E6B0E0E6E3F4E002C005900D92F7
:10007000A036B107D9F70E94E7000C9419020C943E
:10008000000040E00E94E90008950E94E001089508
:1000900041E00E94E900089541E00E946301089553
:1000A00040E00E9463010895CF93DF9300D01F9238
:1000B000CDB7DEB765E081E00E94480064E081E0F2
:1000C0000E94480066E081E00E94480067E082E00C
:1000D0000E94480067E084E00E94410066E084E0FE
:1000E0000E94410065E084E00E94410019821A826A
:1000F0001B8265E081E00E944C00AE014F5F5F4FC4
:1001000067E084E00E94450087E893E10197F1F7FA
:1001100000C00000AE014E5F5F4F66E084E00E94C9
:10012000450087E893E10197F1F700C00000AE01B8
:100130004D5F5F4F67E084E00E94450087E893E1F0
:100140000197F1F700C0000065E081E00E944C00DB
:100150008981811110C065E081E00E94500066E055
:1001600081E00E94500067E082E00E94500064E05D
:1001700081E00E944C008A81811110C065E081E01D
:100180000E94500066E081E00E944C0067E082E03F
:100190000E94500064E081E00E9450008B81811138
:1001A00011C065E081E00E94500066E081E00E949D
:1001B000500067E082E00E944C0064E081E00E9411
:1001C00050009BCF65E081E00E944C0096CF0E94DA
:1001D00054004130C9F56830B8F58230A1F018F408
:1001E000813031F008958330C9F0843011F10895E1
:1001F0002AB381E090E002C0880F991F6A95E2F768
:10020000822B8ABB089527B381E090E002C0880F5B
:10021000991F6A95E2F7822B87BB089524B381E08A
:1002200090E002C0880F991F6A95E2F7822B84BB89
:10023000089521B381E090E002C0880F991F6A956C
:10024000E2F7822B81BB089541113CC06830D0F5A4
:100250008230A9F018F4813031F008958330D9F05C
:10026000843029F108952AB381E090E002C0880F1C
:10027000991F6A95E2F7809582238ABB089527B378
:1002800081E090E002C0880F991F6A95E2F780959F
:10029000822387BB089524B381E090E002C0880FD9
:1002A000991F6A95E2F78095822384BB089521B354
:1002B00081E090E002C0880F991F6A95E2F780956F
:1002C000822381BB08954423E1F16830D0F5823068
:1002D000A9F018F4813031F034C08330D9F0843083
:1002E00029F12FC09BB321E030E0062E02C0220F7F
:1002F000331F0A94E2F7292B2BBB23C098B321E0CC
:1003000030E0062E02C0220F331F0A94E2F7292B99
:1003100028BB17C095B321E030E0062E02C0220FA3
:10032000331F0A94E2F7292B25BB0BC092B321E0BF
:1003300030E0062E02C0220F331F0A94E2F7292B69
:1003400022BB41113CC06830D0F58230A9F018F4CE
:10035000813031F008958330D9F0843029F1089547
:100360002BB381E090E002C0880F991F6A95E2F7F5
:10037000809582238BBB089528B381E090E002C072
:10038000880F991F6A95E2F78095822388BB0895AC
:1003900025B381E090E002C0880F991F6A95E2F7CB
:1003A0008095822385BB089522B381E090E002C04E
:1003B000880F991F6A95E2F78095822382BB089582
:1003C0006830B0F58230A1F018F4813031F0089532
:1003D0008330C9F0843011F1089589B390E002C0F0
:1003E000959587956A95E2F78170FA018083089563
:1003F00086B390E002C0959587956A95E2F7817083
:10040000FA018083089583B390E002C095958795A3
:100410006A95E2F78170FA018083089580B390E0D5
:1004200002C0959587956A95E2F78170FA018083FD
:060430000895F894FFCFCF
:00000001FF
