:100000000C942A000C943F000C943F000C943F0089
:100010000C943F000C943F000C943F000C943F0064
:100020000C943F000C943F000C943F000C943F0054
:100030000C943F000C943F000C943F000C943F0044
:100040000C943F000C943F000C943F000C943F0034
:100050000C943F0011241FBECFE5D8E0DEBFCDBF1A
:1000600010E0A0E6B0E0EEEBF3E002C005900D92E8
:10007000A036B107D9F70E94FD000C94DD010C9465
:1000800000008130E9F0A8F0823031F18330C1F511
:1000900040E063E081E00E94FF0040E062E081E038
:1000A0000E94FF0040E065E082E00E94FF0041E026
:1000B00023C041E063E081E00E94FF0040E006C011
:1000C00040E063E081E00E94FF0041E062E081E007
:1000D0000E94FF0040E00BC040E063E081E00E942E
:1000E000FF0040E062E081E00E94FF0041E065E047
:1000F00082E00E94FF0040E066E082E00E94FF0094
:1001000041E060E082E00E94FF0041E061E082E0C7
:100110000E94FF0041E062E082E00E94FF0041E0B7
:1001200064E082E00C94FF00CF93C82F482F417009
:1001300060E082E00E946E01C1FB442740F961E06B
:1001400082E00E946E01C2FB442740F962E082E037
:100150000E946E01C3FB442740F964E082E0CF9126
:100160000C946E0141E00C94FF0064E081E00E9479
:10017000B20066E081E00E94B20067E082E00E9487
:10018000B20065E081E00E94B200C0E0D0E080E013
:100190000E9441008C2F0E949400AE0183E055958F
:1001A00047958A95E1F766E081E00E946E01AE0115
:1001B0005595479555954795417065E081E00E94BA
:1001C0006E01AE0155954795417064E081E00E9453
:1001D0006E014C2F417067E082E00E946E012FE7B4
:1001E0008FE492E1215080409040E1F700C0000090
:1001F0002196CA30D10559F6B8CF0E94B5004130DA
:1002000091F5683008F069C0823091F018F48130BF
:1002100031F008958330A9F08430E1F008952AB3D5
:1002200081E090E001C0880F6A95EAF7822B33C025
:1002300027B381E090E001C0880F6A95EAF7822B2E
:1002400035C024B381E090E001C0880F6A95EAF7D9
:10025000822B37C021B381E090E001C0880F6A95FE
:10026000EAF7822B39C0411138C06830B0F58230CE
:10027000A1F018F4813031F008958330C9F0843052
:1002800011F108952AB381E090E001C0880F6A95CA
:10029000EAF7809582238ABB089527B381E090E036
:1002A00001C0880F6A95EAF78095822387BB08957D
:1002B00024B381E090E001C0880F6A95EAF7809549
:1002C000822384BB089521B381E090E001C0880FB0
:1002D0006A95EAF78095822381BB08954423E9F16A
:1002E000683008F069C0823091F018F4813031F044
:1002F00008958330A9F08430E1F008952BB381E0B4
:1003000090E001C0880F6A95EAF7822B24C028B3D9
:1003100081E090E001C0880F6A95EAF7822B2AC03D
:1003200025B381E090E001C0880F6A95EAF7822B3F
:1003300030C022B381E090E001C0880F6A95EAF7EF
:10034000822B32C02BB381E090E001C0880F6A9508
:10035000EAF7809582238BBB0895683068F5823078
:1003600059F428B381E090E001C0880F6A95EAF75C
:100370008095822388BB08958330C0F08330C9F410
:1003800025B381E090E001C0880F6A95EAF7809577
:10039000822385BB089522B381E090E001C0880FDD
:1003A0006A95EAF78095822382BB0895813051F2E5
:0E03B0000895843081F308950895F894FFCFE6
:00000001FF
