:100000000C942A000C943F000C943F000C943F0089
:100010000C943F000C943F000C943F000C943F0064
:100020000C943F000C943F000C943F000C943F0054
:100030000C943F000C943F000C943F000C943F0044
:100040000C943F000C943F000C943F000C943F0034
:100050000C943F0011241FBECFE5D8E0DEBFCDBF1A
:1000600010E0A0E6B0E0EEEFF6E002C005900D92E1
:10007000A03CB107D9F70E947F020C947D030C9439
:100080000000AF92BF92CF92DF92EF92FF920F9358
:100090001F93CF93DF9304E610E098E6C92E90E01B
:1000A000D92EE801699141E083E00E948102CC16DB
:1000B000DD06C1F7C0E6D0E084E6A82E80E0B82EC9
:1000C0007E01F70161917F0140E084E00E9481029E
:1000D000AE14BF04B1F7F80161918F0141E083E0F4
:1000E0000E94F002C016D106B1F7699141E084E0A8
:1000F0000E94F002AC16BD06C1F7DF91CF911F91AF
:100100000F91FF90EF90DF90CF90BF90AF90089548
:100110007F928F929F92AF92BF92CF92DF92EF9297
:10012000FF920F931F93CF93DF93CDB7DEB7619705
:100130000FB6F894DEBF0FBECDBF81E0898B80E1A2
:10014000E8E6F0E0DE01119601900D928A95E1F764
:1001500094E6E92E90E0F92E8E010F5F1F4F2FE0FD
:10016000722E470140E0F701608183E00E94F002B7
:1001700080E6A82E80E0B82EC12CD12CAE014F5EB7
:100180005F4FF501608184E00E945F0389898111DE
:1001900010C0F801EC0DFD1D70808989811109C026
:1001A000AE014F5E5F4FF501608184E00E945F0306
:1001B000F4CFFFEFCF1ADF0A8FEFA81AB80AE4E0F6
:1001C000CE16D104D9F6FFEFEF1AFF0A41E0F40191
:1001D000608183E00E94F0020C5F1F4FF8E6EF168B
:1001E000F0E0FF0609F0BDCF8FE0781611F0872D03
:1001F00000C061960FB6F894DEBF0FBECDBFDF9191
:10020000CF911F910F91FF90EF90DF90CF90BF9013
:10021000AF909F908F907F900895CF93C82F40E02C
:1002200062E081E00E94F00240E063E081E00E9431
:10023000F002C4FB442740F960E082E00E94F00233
:10024000C5FB442740F961E082E00E94F002C6FB52
:10025000442740F962E082E00E94F0024C2F441FE4
:100260004427441F64E082E00E94F00241E062E023
:1002700081E00E94F00283EF91E00197F1F700C066
:10028000000040E062E081E00E94F0024C2F4170EB
:1002900060E082E00E94F002C1FB442740F961E087
:1002A00082E00E94F002C2FB442740F962E082E053
:1002B0000E94F002C3FB442740F964E082E00E9400
:1002C000F00241E062E081E00E94F00283EF91E001
:1002D0000197F1F700C0000040E062E081E00E9479
:1002E000F00281EE94E00197F1F700C00000CF9199
:1002F000089541E062E081E00E94810241E063E014
:1003000081E00E94810241E060E082E00E9481027F
:1003100041E061E082E00E94810241E062E082E02F
:100320000E94810241E064E082E00E94810287EA4B
:1003300091E60197F1F700C0000083E30E940D01F0
:1003400082E30E940D0188E20E940D018CE00E9470
:100350000D0182E00E940D0181E00E940D0186E006
:100360000C940D01CF93C82F40E062E081E00E9421
:10037000F00241E063E081E00E94F002C4FB442708
:1003800040F960E082E00E94F002C5FB442740F99A
:1003900061E082E00E94F002C6FB442740F962E07F
:1003A00082E00E94F0024C2F441F4427441F64E067
:1003B00082E00E94F00241E062E081E00E94F002EF
:1003C00083EF91E00197F1F700C0000040E062E0A8
:1003D00081E00E94F0024C2F417060E082E00E94B8
:1003E000F002C1FB442740F961E082E00E94F00284
:1003F000C2FB442740F962E082E00E94F002C3FBA6
:10040000442740F964E082E00E94F00241E062E0AB
:1004100081E00E94F00283EF91E00197F1F700C0C4
:10042000000040E062E081E00E94F00281EE94E092
:100430000197F1F700C00000CF91089581E00C947E
:100440000D01CF93DF93EC018991882319F00E946D
:10045000B201FACFDF91CF9108950F931F93CF93FD
:10046000DF9300D000D0CDB7DEB7009178001091B7
:10047000790020917A0030917B0009831A832B83C5
:100480003C83FE01E80FF11D8181860F0F900F90D4
:100490000F900F90DF91CF911F910F910C940D0150
:1004A0000E9479010E9441000E9488008F30E1F390
:1004B00099278430910599F04CF40197A9F760E0F1
:1004C00080E00E942D0285EA90E016C087309105F9
:1004D00069F08336910541F70E941E02E5CF60E086
:1004E00081E00E942D028EEA90E006C060E082E08A
:1004F0000E942D0284EB90E00E942102D5CF0E9441
:100500005002413091F5683008F069C0823091F0B6
:1005100018F4813031F008958330A9F08430E1F08F
:1005200008952AB381E090E001C0880F6A95EAF748
:10053000822B33C027B381E090E001C0880F6A9519
:10054000EAF7822B35C024B381E090E001C0880F28
:100550006A95EAF7822B37C021B381E090E001C0B1
:10056000880F6A95EAF7822B39C0411138C068308C
:10057000B0F58230A1F018F4813031F00895833065
:10058000C9F0843011F108952AB381E090E001C0F0
:10059000880F6A95EAF7809582238ABB089527B36E
:1005A00081E090E001C0880F6A95EAF78095822388
:1005B00087BB089524B381E090E001C0880F6A955D
:1005C000EAF78095822384BB089521B381E090E00F
:1005D00001C0880F6A95EAF78095822381BB089550
:1005E0004423E9F1683008F069C0823091F018F4D2
:1005F000813031F008958330A9F08430E1F008951E
:100600002BB381E090E001C0880F6A95EAF7822B56
:1006100024C028B381E090E001C0880F6A95EAF712
:10062000822B2AC025B381E090E001C0880F6A9533
:10063000EAF7822B30C022B381E090E001C0880F3E
:100640006A95EAF7822B32C02BB381E090E001C0BB
:10065000880F6A95EAF7809582238BBB08956830EE
:1006600068F5823059F428B381E090E001C0880F2A
:100670006A95EAF78095822388BB08958330C0F09D
:100680008330C9F425B381E090E001C0880F6A95FA
:10069000EAF78095822385BB089522B381E090E03C
:1006A00001C0880F6A95EAF78095822382BB08957E
:1006B000813051F20895843081F308950895FA014C
:1006C0006830D0F4823059F018F4813031F0089558
:1006D000833039F0843039F0089589B305C086B38A
:1006E00003C083B301C080B390E002C095958795A5
:0E06F0006A95E2F7817080830895F894FFCF39
:1006FE000706050305040302070809780405062FFB
:10070E000102032B63003D2D80C094D473796D6B71
:10071E000073796D6B310073796D6B320073796D87
:10072E006B330073746172742F2F2F2F2F2F2F00A6
:10073E0043414C43004D6F68616D6D6564004168C7
:10074E006D65640041626420456C7A616865720073
:00000001FF
